:030000000208787B
:0C087800787FE4F6D8FD758107020800C7
:10080000E580B4FC15E4F5907F64FE120852759003
:10081000FF7F647E0012085280E6E580B4FF05E4A5
:10082000F59080DCE58070057590FF80D3E580B49D
:10083000FE1BE4F590E590D394FF50C4E58064FE80
:1008400060BE7F647E00120852059080E88580902B
:0208500080AE78
:10085200E4FDFCC3ED9FEE6480F8EC6480985015D3
:10086200E4FBFA0BBB00010AEB64784A70F50DBD9C
:0508720000010C80DE16
:01087700225E
:00000001FF
